:020000040000FA
:1000000044C05EC05DC05CC05BC05AC059C058C02F
:1000100057C002C155C054C053C052C051C050C097
:100020004FC04EC04DC000000000000000000004A2
:1000300005070000000000000000000000010204AD
:10004000081020408001020408102001020408105A
:100050002040804004040404040404040202020258
:10006000020203030303030302020300000000363D
:10007000003300300000000000380035003200007E
:100080000000003700340031000011241FBECFE50E
:10009000D4E0DEBFCDBF10E0A0E6B0E0E4E4F5E0E0
:1000A00002C005900D92A43BB107D9F720E0A4EB64
:1000B000B0E001C01D92AF3BB207E1F70FD240C2E2
:1000C0009FCF61E082E078D161E083E075D161E0AB
:1000D00084E072D161E085E06FD161E086E06CD1AF
:1000E00061E087E069D161E088E066D160E089E0A5
:1000F00063D160E08AE060D160E08BE05DD160E0D8
:100100008CE05AD160E08EE057D160E08FE054D1AE
:1001100060E080E151D160E081E14ED161E08AE0B0
:1001200087D161E08BE084D161E08CE081D161E036
:100130008DE07ED161E08EE07BD161E08FE078D10F
:1001400061E080E175D161E081E172C10F931F939D
:10015000CF93DF9397E0899F80011124D0E0C0E026
:10016000F801EC0FFD1FE05AFF4F60818C2F8E5F6E
:100170005FD12196C730D10599F7DF91CF911F91BB
:100180000F91089589E081D1892B89F48BE0DEDF1E
:1001900064E670E080E090E0AFD08091B400909190
:1001A000B50001969093B5008093B40008958AE05D
:1001B0006CD1892B11F481E0EACF8BE066D1892BD9
:1001C00011F482E0E4CF8CE060D1892B11F483E05C
:1001D000DECF8EE05AD1892B11F484E0D8CF8FE0A6
:1001E00054D1892B11F485E0D2CF80E14ED1892BF7
:1001F00011F486E0CCCF81E148D1892B59F480916C
:10020000B4009091B50062E070E073D1019711F4F1
:1002100080E0BDCF8AE0BBCF1F920F920FB60F9246
:1002200011242F933F938F939F93AF93BF9380910C
:10023000BB009091BC00A091BD00B091BE00309178
:10024000BA0026E0230F2D3768F129E8230F039623
:10025000A11DB11D2093BA008093BB009093BC00F8
:10026000A093BD00B093BE008091B6009091B700FE
:10027000A091B800B091B9000196A11DB11D809365
:10028000B6009093B700A093B800B093B900BF91A7
:10029000AF919F918F913F912F910F900FBE0F9033
:1002A0001F9018950296A11DB11DD4CF3FB7F894A9
:1002B0008091B6009091B700A091B800B091B900BC
:1002C00022B708B600FE05C02F3F19F00196A11D08
:1002D000B11D3FBFBA2FA92F982F8827BC01CD0190
:1002E000620F711D811D911D43E0660F771F881FEE
:1002F000991F4A95D1F708958F929F92AF92BF921E
:10030000CF92DF92EF92FF926B017C01CFDF4B0126
:100310005C01C114D104E104F104D9F0E9D0C6DFD5
:10032000681979098A099B09683E7340810591051E
:1003300080F321E0C21AD108E108F10888EE880EA6
:1003400083E0981EA11CB11CC114D104E104F10486
:1003500031F7FF90EF90DF90CF90BF90AF909F90DC
:100360008F900895789483B7836083BF89B7816045
:1003700089BF82E08EBD8EB581608EBD8FB58160F4
:100380008FBD85B5846085BD85B5806485BD86E8F3
:1003900086B91AB80895853041F0873049F0843025
:1003A00051F48FB58F778FBD08958FB58F7DFBCFBB
:1003B00085B58F7D85BD0895CF93DF9390E0FC01D7
:1003C000E35CFF4F24918C5A9F4FFC01849188235A
:1003D000C9F090E0880F991FFC01E158FF4FA591EB
:1003E000B491FC01EB58FF4FC591D49161110DC040
:1003F0009FB7F8948C91209582238C938881282331
:1004000028839FBFDF91CF910895623051F49FB749
:10041000F8943C91822F809583238C93E8812E2B36
:10042000EFCF8FB7F894EC912E2B2C938FBFEACFA0
:100430001F93CF93DF93282F30E0F901EA5DFF4F40
:100440008491F901E35CFF4FD491F901EC5AFF4F1D
:10045000C491CC23A1F0162F81119DDFEC2FF0E089
:10046000EE0FFF1FEB58FF4FA591B4918FB7F89493
:10047000EC91111108C0D095DE23DC938FBFDF9182
:10048000CF911F910895DE2BF8CFCF93DF93282FC4
:1004900030E0F901EA5DFF4F8491F901E35CFF4F21
:1004A000D491F901EC5AFF4FC491CC2399F08111FA
:1004B00072DFEC2FF0E0EE0FFF1FE559FF4FA59123
:1004C000B491EC91ED2381E090E009F480E0DF91BC
:1004D000CF91089580E090E0FACF089543DFFDDFEB
:1004E000F0DDC0E0D0E04EDE2097E9F389DDFBCF00
:1004F000089597FB072E16F4009406D077FD08D0D8
:100500000BD007FC05D03EF4909581959F4F089540
:10051000709561957F4F0895AA1BBB1B51E107C0E1
:10052000AA1FBB1FA617B70710F0A61BB70B881F83
:10053000991F5A95A9F780959095BC01CD01089512
:10054000F894FFCF01010101010100000101000049
:100550000000010100010100010101010100000191
:100560000001010000010101000101000101010081
:10057000010101010101010100000000010101016F
:100580000101010101010000010100000000000063
:0805900000010100000101015E
:00000001FF
