:100000000C9461000C947E000C947E000C947E0095
:100010000C947E000C947E000C947E000C947E0068
:100020000C947E000C947E000C947E000C947E0058
:100030000C947E000C947E000C947E000C947E0048
:100040000C9473010C947E000C947E000C947E0042
:100050000C947E000C947E000C947E000C947E0028
:100060000C947E000C947E00000000002400270009
:100070002A0000000000250028002B0000000000DE
:1000800023002600290004040404040404040202DA
:100090000202020203030303030301020408102007
:1000A0004080010204081020010204081020000012
:1000B0000008000201000003040700000000000027
:1000C000000011241FBECFEFD8E0DEBFCDBF11E08E
:1000D000A0E0B1E0ECEAF5E002C005900D92A83A8C
:1000E000B107D9F721E0A8EAB1E001C01D92A33B16
:1000F000B207E1F70E94BD010C94D4020C940000F9
:10010000833081F028F4813099F08230A9F008958D
:100110008730A9F08830C9F08430B1F48091800034
:100120008F7D03C0809180008F7780938000089539
:1001300084B58F7784BD089584B58F7DFBCF809182
:10014000B0008F778093B00008958091B0008F7DCC
:10015000F9CFCF93DF93282F30E0F901E255FF4F1D
:100160008491F901E656FF4FD491F901EA57FF4F08
:10017000C491CC23A1F081110E948000EC2FF0E00B
:10018000EE0FFF1FE458FF4FA591B491EC91ED23C2
:1001900081E090E009F480E0DF91CF91089580E064
:1001A00090E0FACF1F93CF93DF93282F30E0F9012F
:1001B000E255FF4F8491F901E656FF4FD491F901C2
:1001C000EA57FF4FC491CC23A9F0162F81110E944A
:1001D0008000EC2FF0E0EE0FFF1FEE58FF4FA591CF
:1001E000B4918FB7F894EC91111108C0D095DE232B
:1001F000DC938FBFDF91CF911F910895DE2BF8CF55
:10020000CF93DF9390E0FC01E656FF4F24918A578D
:100210009F4FFC0184918823D1F090E0880F991FB3
:10022000FC01E859FF4FA591B491FC01EE58FF4F36
:10023000C591D49161110EC09FB7F8948C91E22FB3
:10024000E0958E238C932881E223E8839FBFDF9182
:10025000CF9108958FB7F894EC91E22BEC938FBF78
:10026000F6CF3FB7F8948091AD019091AE01A09187
:10027000AF01B091B00126B5A89B05C02F3F19F082
:100280000196A11DB11D3FBFBA2FA92F982F882716
:10029000BC01CD01620F711D811D911D42E0660FF1
:1002A000771F881F991F4A95D1F708950F931F93C1
:1002B000CF93DF939EE0899F80011124D0E0C0E0BE
:1002C000F801EC0FFD1FE050FF4F60818C2F8E5F17
:1002D0000E94D2002196CE30D10591F7DF91CF91C7
:1002E0001F910F9108951F920F920FB60F92112434
:1002F0002F933F938F939F93AF93BF938091A901C7
:100300009091AA01A091AB01B091AC013091A801EC
:1003100023E0230F2D3758F50196A11DB11D209321
:10032000A8018093A9019093AA01A093AB01B09377
:10033000AC018091AD019091AE01A091AF01B0915F
:10034000B0010196A11DB11D8093AD019093AE0146
:10035000A093AF01B093B001BF91AF919F918F91E6
:100360003F912F910F900FBE0F901F90189526E888
:10037000230F0296A11DB11DD2CF789484B582605F
:1003800084BD84B5816084BD85B5826085BD85B539
:10039000816085BD80916E00816080936E001092B7
:1003A0008100809181008260809381008091810032
:1003B00081608093810080918000816080938000C3
:1003C0008091B10084608093B1008091B000816021
:1003D0008093B00080917A00846080937A0080914D
:1003E0007A00826080937A0080917A0081608093A5
:1003F0007A0080917A00806880937A001092C10020
:1004000061E082E00E94000161E083E00E9400015F
:1004100061E084E00E94000161E085E00E9400014B
:1004200061E086E00E94000161E087E00E94000137
:1004300061E088E00E94000161E089E00E94000123
:1004400061E08AE00E94000161E08BE00E9400010F
:1004500060E08EE00E94000160E08FE00E940001F9
:1004600060E080E10E94000160E081E10E94000103
:1004700060E082E10E94000160E083E10E940001EF
:1004800060E080E00E94000160E081E00E940001E5
:1004900061E08EE00E94D20061E08FE00E94D20015
:1004A00061E080E10E94D20061E081E10E94D2001F
:1004B00061E082E10E94D20061E083E10E94D2000B
:1004C00061E080E00E94D20061E081E00E94D20001
:1004D00000E010E08EE00E94A900C091B101D0912F
:1004E000B201892B91F580E00E9456010E943101F2
:1004F0004B015C0182E3C82ED12CE12CF12C0E942F
:100500003101681979098A099B09683E73408105A0
:100510009105A8F321E0C21AD108E108F10888EE9C
:10052000880E83E0981EA11CB11CC114D104E10403
:10053000F10429F72196D093B201C093B1010115BE
:10054000110541F20E940000C5CF8FE00E94A90072
:10055000892B11F481E0C8CF80E10E94A900892B8A
:1005600011F482E0C1CF81E10E94A900892B11F42E
:1005700083E0BACF82E10E94A900892B11F484E0C4
:10058000B3CF83E10E94A900892B11F485E0ACCFA1
:1005900080E00E94A900892B11F486E0A5CF81E0BC
:0C05A0000E94A9008DE0A0CFF894FFCFCE
:1005AC000001010001010001010000000000000138
:1005BC00010000000000000100000000010100012A
:1005CC000100010000000000000001010101000019
:1005DC00010000000000000000010100000101000A
:1005EC0000000000000001000101000101000000FA
:1005FC0000000000010100000101010001000000E9
:10060C0000000101010000000000000000000000DB
:10061C0001010101010101000000000000000101C5
:10062C0001000001010000000000000000000000BB
:10063C0000000000000000000000010100000101AA
:08064C000100000000000000A5
:00000001FF
