:100000000C9461000C947E000C947E000C947E0095
:100010000C947E000C947E000C947E000C947E0068
:100020000C947E000C947E000C947E000C947E0058
:100030000C947E000C947E000C947E000C947E0048
:100040000C9473010C947E000C947E000C947E0042
:100050000C947E000C947E000C947E000C947E0028
:100060000C947E000C947E00000000002400270009
:100070002A0000000000250028002B0000000000DE
:1000800023002600290004040404040404040202DA
:100090000202020203030303030301020408102007
:1000A0004080010204081020010204081020000012
:1000B0000008000201000003040700000000000027
:1000C000000011241FBECFEFD8E0DEBFCDBF11E08E
:1000D000A0E0B1E0EEEFF5E002C005900D92A4358E
:1000E000B107D9F721E0A4E5B1E001C01D92AF3519
:1000F000B207E1F70E94BD010C94FD020C940000D0
:10010000833081F028F4813099F08230A9F008958D
:100110008730A9F08830C9F08430B1F48091800034
:100120008F7D03C0809180008F7780938000089539
:1001300084B58F7784BD089584B58F7DFBCF809182
:10014000B0008F778093B00008958091B0008F7DCC
:10015000F9CFCF93DF93282F30E0F901E255FF4F1D
:100160008491F901E656FF4FD491F901EA57FF4F08
:10017000C491CC23A1F081110E948000EC2FF0E00B
:10018000EE0FFF1FE458FF4FA591B491EC91ED23C2
:1001900081E090E009F480E0DF91CF91089580E064
:1001A00090E0FACF1F93CF93DF93282F30E0F9012F
:1001B000E255FF4F8491F901E656FF4FD491F901C2
:1001C000EA57FF4FC491CC23A9F0162F81110E944A
:1001D0008000EC2FF0E0EE0FFF1FEE58FF4FA591CF
:1001E000B4918FB7F894EC91111108C0D095DE232B
:1001F000DC938FBFDF91CF911F910895DE2BF8CF55
:10020000CF93DF9390E0FC01E656FF4F24918A578D
:100210009F4FFC0184918823D1F090E0880F991FB3
:10022000FC01E859FF4FA591B491FC01EE58FF4F36
:10023000C591D49161110EC09FB7F8948C91E22FB3
:10024000E0958E238C932881E223E8839FBFDF9182
:10025000CF9108958FB7F894EC91E22BEC938FBF78
:10026000F6CF3FB7F8948091590190915A01A0912F
:100270005B01B0915C0126B5A89B05C02F3F19F02A
:100280000196A11DB11D3FBFBA2FA92F982F882716
:10029000BC01CD01620F711D811D911D42E0660FF1
:1002A000771F881F991F4A95D1F708950F931F93C1
:1002B000CF93DF9397E0899F80011124D0E0C0E0C5
:1002C000F801EC0FFD1FE050FF4F60818C2F8E5F17
:1002D0000E94D2002196C730D10591F7DF91CF91CE
:1002E0001F910F9108951F920F920FB60F92112434
:1002F0002F933F938F939F93AF93BF93809155011B
:1003000090915601A0915701B0915801309154013C
:1003100023E0230F2D3758F50196A11DB11D209321
:1003200054018093550190935601A0935701B093C7
:1003300058018091590190915A01A0915B01B091AF
:100340005C010196A11DB11D8093590190935A0142
:10035000A0935B01B0935C01BF91AF919F918F918E
:100360003F912F910F900FBE0F901F90189526E888
:10037000230F0296A11DB11DD2CF789484B582605F
:1003800084BD84B5816084BD85B5826085BD85B539
:10039000816085BD80916E00816080936E001092B7
:1003A0008100809181008260809381008091810032
:1003B00081608093810080918000816080938000C3
:1003C0008091B10084608093B1008091B000816021
:1003D0008093B00080917A00846080937A0080914D
:1003E0007A00826080937A0080917A0081608093A5
:1003F0007A0080917A00806880937A001092C10020
:1004000061E082E00E94000161E083E00E9400015F
:1004100061E084E00E94000161E085E00E9400014B
:1004200061E086E00E94000161E087E00E94000137
:1004300061E088E00E94000160E089E00E94000124
:1004400060E08AE00E94000160E08BE00E94000111
:1004500060E08CE00E94000160E08EE00E940001FC
:1004600060E08FE00E94000160E080E10E940001F6
:1004700060E081E10E94000161E08AE00E94D20018
:1004800061E08BE00E94D20061E08CE00E94D2002B
:1004900061E08DE00E94D20061E08EE00E94D20017
:1004A00061E08FE00E94D20061E080E10E94D20012
:1004B00061E081E10E94D20092E0E92EF12C00E09F
:1004C00010E089E00E94A900C0915D01D0915E0119
:1004D000892B91F58BE00E9456010E9431012B017E
:1004E0003C0184E6882E912CA12CB12C0E94310174
:1004F0006419750986099709683E7340810591055D
:10050000A8F321E0821A9108A108B10888EE480EEC
:1005100083E0581E611C711C81149104A104B10474
:1005200029F72196D0935E01C0935D010115110555
:1005300041F20E940000C5CF8AE00E94A900892BE9
:1005400011F481E0C8CF8BE00E94A900892B11F43F
:1005500082E0C1CF8CE00E94A900892B11F483E0D6
:10056000BACF8EE00E94A900892B11F484E0B3CFAA
:100570008FE00E94A900892B11F485E0ACCF80E1C7
:100580000E94A900892B11F486E0A5CF81E10E9489
:10059000A900892B41F4CE01B7010E94D502019731
:1005A00011F480E098CF8AE096CF97FB072E16F4DF
:1005B000009407D077FD09D00E94E90207FC05D01E
:1005C0003EF4909581959F4F0895709561957F4F6A
:1005D0000895AA1BBB1B51E107C0AA1FBB1FA6178A
:1005E000B70710F0A61BB70B881F991F5A95A9F7DC
:0E05F00080959095BC01CD010895F894FFCF41
:1005FE0001010101010100000101000000000101E3
:10060E0000010100010101010100000100010100D2
:10061E0000010101000101000101010001010101C0
:10062E0001010101000000000101010101010101B0
:10063E0001010000010100000000000000010100A6
:04064E0000010101A5
:00000001FF
