:100000000C9461000C947E000C947E000C947E0095
:100010000C947E000C947E000C947E000C947E0068
:100020000C947E000C947E000C947E000C947E0058
:100030000C947E000C947E000C947E000C947E0048
:100040000C9438020C947E000C947E000C947E007C
:100050000C947E000C947E000C947E000C947E0028
:100060000C9482020C947E00000000002400270003
:100070002A0000000000250028002B0000000000DE
:1000800023002600290004040404040404040202DA
:100090000202020203030303030301020408102007
:1000A0004080010204081020010204081020000012
:1000B0000008000201000003040700000000000027
:1000C000000011241FBECFEFD8E0DEBFCDBF11E08E
:1000D000A0E0B1E0ECEAF9E002C005900D92A03C8E
:1000E000B107D9F722E0A0ECB1E001C01D92AC331A
:1000F000B207E1F70E949D030C94D4040C94000015
:10010000833081F028F4813099F08230A9F008958D
:100110008730A9F08830C9F08430B1F48091800034
:100120008F7D03C0809180008F7780938000089539
:1001300084B58F7784BD089584B58F7DFBCF809182
:10014000B0008F778093B00008958091B0008F7DCC
:10015000F9CFCF93DF93282F30E0F901E255FF4F1D
:100160008491F901E656FF4FD491F901EA57FF4F08
:10017000C491CC23A1F081110E948000EC2FF0E00B
:10018000EE0FFF1FE458FF4FA591B491EC91ED23C2
:1001900081E090E009F480E0DF91CF91089580E064
:1001A00090E0FACF1F93CF93DF93282F30E0F9012F
:1001B000E255FF4F8491F901E656FF4FD491F901C2
:1001C000EA57FF4FC491CC23A9F0162F81110E944A
:1001D0008000EC2FF0E0EE0FFF1FEE58FF4FA591CF
:1001E000B4918FB7F894EC91111108C0D095DE232B
:1001F000DC938FBFDF91CF911F910895DE2BF8CF55
:10020000CF93DF9390E0FC01E656FF4F24918A578D
:100210009F4FFC0184918823D1F090E0880F991FB3
:10022000FC01E859FF4FA591B491FC01EE58FF4F36
:10023000C591D49161110EC09FB7F8948C91E22FB3
:10024000E0958E238C932881E223E8839FBFDF9182
:10025000CF9108958FB7F894EC91E22BEC938FBF78
:10026000F6CF3FB7F8948091360290913702A09173
:100270003802B091390226B5A89B05C02F3F19F06E
:100280000196A11DB11D3FBFBA2FA92F982F882716
:10029000BC01CD01620F711D811D911D42E0660FF1
:1002A000771F881F991F4A95D1F708952091E7017C
:1002B000260F3327331F21323105ECF420910B0236
:1002C000FC0190E080E0243069F082E00895A09184
:1002D000E7012191AC0149535E4FA40FB52FB11D29
:1002E0002C930196861798F38091E701680F60932D
:1002F000E70180E0089581E0089508958FEF9FEF72
:1003000008958FEF9FEF08958091C00190E091953F
:10031000819591090895CF93DF93CB01EA01642F72
:100320000E945601CE01DF91CF910895CF93DF93C4
:100330001F92CDB7DEB7698361E0CE0101960E94BE
:10034000560181E090E00F90DF91CF91089590E009
:1003500080E00895CF93DF93D82FC8E06D2F661FFC
:100360006627661F8AE00E94D200DD0F61E08CE004
:100370000E94D20060E08CE00E94D200C15071F770
:10038000DF91CF9108951F93CF93DF9385ED8093F5
:10039000BC008091C3019091C401A091C501B091AE
:1003A000C6010796A11DB11D23E0B695A7959795A7
:1003B00087952A95D1F72091BC0024FD03C01092A7
:1003C0000B0252C04091C3015091C4016091C5011C
:1003D0007091C601452B462B472B69F30097A10569
:1003E000B10541F02AE22A95F1F700C00197A10971
:1003F000B109E1CF8091C201C1E0C093C10188235E
:1004000099F1D091B8001091BA008091BC008A7B1C
:100410008093BC0060E082E10E94D20060E083E152
:100420000E94D20010920B02C0930D0210920C0297
:1004300061E082E10E94D20061E083E10E94D2008B
:100440008091B9008E7F8093B9008091B9008D7F33
:100450008093B90088E48093B80085E48093BC0061
:100460001093BA00D093B800DF91CF911F910895F7
:100470001F920F920FB60F9211242F933F938F93D9
:100480009F93AF93BF938091320290913302A091DA
:100490003402B09135023091310223E0230F2D3721
:1004A00058F50196A11DB11D2093310280933202AF
:1004B00090933302A0933402B093350280913602B8
:1004C00090913702A0913802B09139020196A11D96
:1004D000B11D8093360290933702A0933802B093F7
:1004E0003902BF91AF919F918F913F912F910F90C2
:1004F0000FBE0F901F90189526E8230F0296A11D9E
:10050000B11DD2CF1F920F920FB60F9211242F93CD
:100510003F934F935F936F937F938F939F93AF938B
:10052000BF93EF93FF938091B900887F803609F4E1
:100530004AC0F0F5883209F4A5C018F5803109F4F5
:1005400099C0B8F4882309F4F5C0883009F492C042
:10055000FF91EF91BF91AF919F918F917F916F919B
:100560005F914F913F912F910F900FBE0F901F9071
:100570001895883109F486C0803251F780930A02B9
:1005800014C0803409F49BC040F48033B9F388333D
:10059000F9F680930A0285ECAEC0803509F483C079
:1005A000883509F494C0883499F60E94C301D0CFED
:1005B000883909F48AC038F5883729F050F488362C
:1005C00011F0803729F683E080930B021092090224
:1005D00055C0883809F479C0803919F0803809F09D
:1005E000B7CF80910902803208F06FC0E091090214
:1005F00081E08E0F809309028091BB00F0E0E7510B
:10060000FE4F80833BC0803B39F0D0F4803A09F440
:1006100077C0883A09F09CCF84E080930B02109257
:10062000E8011092E701F0E0E0E009958091E70130
:1006300081110FC081E08093E7011092C70109C0CA
:10064000803C09F4A8CF883C09F4A5CF883B09F089
:100650007FCFE091E80181E08E0F8093E801F0E028
:10066000E953FE4F80818093BB009091E801809117
:10067000E70129C0809130028093BB0085EC809314
:10068000BC0066CF90912F0280912E02981758F5EA
:10069000E0912F0281E08E0F80932F02F0E0E25F65
:1006A000FD4F8081E9CFE0912F0281E08E0F809392
:1006B0002F028091BB00F0E0E25FFD4F80839091BC
:1006C0002F0280912E029817C8F285E8D8CFE091CA
:1006D0002F0281E08E0F80932F028091BB00F0E00B
:1006E000E25FFD4F808380910D0281115ECF81E03A
:1006F00080930C0284EA8093BC0010920B0228CFF6
:1007000085EC8093BC0010920B028091090280322C
:1007100030F4E0910902F0E0E751FE4F1082609161
:10072000090270E089EE91E0F0E0E0E009951092B6
:1007300009020ECF10920A0238CF789484B58260F5
:1007400084BD84B5816084BD85B5826085BD85B575
:10075000816085BD80916E00816080936E001092F3
:10076000810080918100826080938100809181006E
:1007700081608093810080918000816080938000FF
:100780008091B10084608093B1008091B00081605D
:100790008093B00080917A00846080937A00809189
:1007A0007A00826080937A0080917A0081608093E1
:1007B0007A0080917A00806880937A001092C1005C
:1007C00061E08BE00E94000161E08CE00E9400018A
:1007D00061E08AE00E94000160E08EE00E9400017A
:1007E00060E08FE00E94000160E080E10E94000173
:1007F00060E081E10E94000160E082E10E9400016E
:1008000060E083E10E94000160E080E00E9400015E
:1008100060E081E00E94000161E08EE00E94D20071
:1008200061E08FE00E94D20061E080E10E94D2008E
:1008300061E081E10E94D20061E082E10E94D20089
:1008400061E083E10E94D20061E080E00E94D2007A
:1008500061E081E00E94D20022E0C22ED12C30E083
:10086000E32E30E0F32E8EE00E94A900C0913A0200
:10087000D0913B02892B91F580E00E94AA010E9451
:1008800031012B013C0184E6882E912CA12CB12C46
:100890000E9431016419750986099709683E734001
:1008A00081059105A8F3F1E08F1A9108A108B1081C
:1008B00028EE420E23E0521E611C711C811491042B
:1008C000A104B10429F72196D0933B02C0933A02C8
:1008D000E114F10441F20E940000C5CF8FE00E94B4
:1008E000A900892B11F481E0C8CF80E10E94A90002
:1008F000892BC9F381E10E94A900892B09F4BCCF9F
:1009000082E10E94A900892B71F383E10E94A90072
:10091000892B49F380E00E94A900892B21F381E013
:100920000E94A900892B09F0A7CFCE01B6010E9431
:10093000AC04019709F4A0CF90E1A92E91E0B92E63
:1009400012E0F50161915F01812F0E94D2001F5FCB
:100950001231B9F794CF089597FB072E16F400943F
:1009600007D077FD09D00E94C00407FC05D03EF4F3
:10097000909581959F4F0895709561957F4F08954B
:10098000AA1BBB1B51E107C0AA1FBB1FA617B707B5
:1009900010F0A61BB70B881F991F5A95A9F78095D1
:0C09A0009095BC01CD010895F894FFCFA4
:1009AC000000010100000101010000000100000035
:1009BC000000010100000000000001000000000028
:1009CC000101010001010100000000010000000113
:1009DC000101010101010000000000010000000103
:1009EC0000000101000000010000000100000001F6
:1009FC0001010001010100010000000100000001E3
:100A0C0001010100000001010000000101000001D2
:100A1C0001010101000000000000000000000000C6
:100A2C0001010101010101010000000100000001B0
:100A3C0001010101010100010000000100000001A1
:100A4C00000000000000000000000000000000009A
:100A5C000101010101010101000000000000000082
:00000001FF
