:100000000C9461000C9473000C9473000C947300B6
:100010000C9473000C9473000C9473000C94730094
:100020000C9473000C9473000C9473000C94730084
:100030000C9473000C9473000C9473000C94730074
:100040000C9426010C9473000C9473000C947300B0
:100050000C9473000C9473000C9473000C94730054
:100060000C9473000C94730000000000240027001F
:100070002A0000000000250028002B0000000000DE
:1000800023002600290004040404040404040202DA
:100090000202020203030303030301020408102007
:1000A0004080010204081020010204081020000012
:1000B0000008000201000003040700000000000027
:1000C000000011241FBECFEFD8E0DEBFCDBF21E07E
:1000D000A0E0B1E001C01D92A930B207E1F70E9493
:1000E00070010C9449020C940000833081F028F4D4
:1000F000813099F08230A9F008958730A9F08830D6
:10010000C9F08430B1F4809180008F7D03C080916C
:1001100080008F7780938000089584B58F7784BDA9
:10012000089584B58F7DFBCF8091B0008F77809349
:10013000B00008958091B0008F7DF9CFCF93DF9309
:10014000282F30E0F901E255FF4F8491F901E6567E
:10015000FF4FD491F901EA57FF4FC491CC23A1F08E
:1001600081110E947500EC2FF0E0EE0FFF1FE458A4
:10017000FF4FA591B491EC91ED2381E090E009F45B
:1001800080E0DF91CF91089580E090E0FACF1F9357
:10019000CF93DF93282F30E0F901E255FF4F849190
:1001A000F901E656FF4FD491F901EA57FF4FC49188
:1001B000CC23A9F0162F81110E947500EC2FF0E0DE
:1001C000EE0FFF1FEE58FF4FA591B4918FB7F89433
:1001D000EC91111108C0D095DE23DC938FBFDF9125
:1001E000CF911F910895DE2BF8CFCF93DF9390E04E
:1001F000FC01E656FF4F24918A579F4FFC018491E2
:100200008823D1F090E0880F991FFC01E859FF4F37
:10021000A591B491FC01EE58FF4FC591D491623085
:1002200071F49FB7F8943C91822F809583238C932F
:10023000E8812E2B28839FBFDF91CF9108958FB740
:10024000F894EC912E2B2C938FBFF6CF1F920F9228
:100250000FB60F9211242F933F938F939F93AF93D9
:10026000BF938091050190910601A0910701B09183
:1002700008013091040123E0230F2D3758F5019632
:10028000A11DB11D209304018093050190930601E7
:10029000A0930701B09308018091000190910101A2
:1002A000A0910201B09103010196A11DB11D80939F
:1002B000000190930101A0930201B0930301BF914B
:1002C000AF919F918F913F912F910F900FBE0F9003
:1002D0001F90189526E8230F0296A11DB11DD2CFBD
:1002E000789484B5826084BD84B5816084BD85B511
:1002F000826085BD85B5816085BD80916E0081601D
:1003000080936E00109281008091810082608093C2
:1003100081008091810081608093810080918000C4
:100320008160809380008091B10084608093B100EF
:100330008091B00081608093B00080917A008460E9
:1003400080937A0080917A00826080937A00809115
:100350007A00816080937A0080917A00806880932F
:100360007A001092C10061E087E00E94F50061E030
:1003700088E00E94F50061E089E00E94F50061E0FC
:100380008AE00E94F50061E08BE00E94F50061E0E8
:100390008CE00E94F50061E08DE00E94F50062E0D3
:1003A0008EE00E94F50062E08FE00E94F50062E0BE
:1003B00080E10E94F50062E081E10E94F50062E0C8
:1003C00082E10E94F50062E083E10E94F50062E0B4
:1003D00082E00E94F50080E0482E80E0582E8EE0FA
:1003E0000E949E005C018FE00E949E006C0180E1F3
:1003F0000E949E007C0181E10E949E008C0182E1AE
:100400000E949E00EC0183E10E949E004C0182E06C
:100410000E949E003C0160E0AA94AB2809F061E0D4
:1004200087E00E94C70060E0CA94CD2809F061E02F
:1004300088E00E94C70060E0EA94EF2809F061E0DC
:1004400089E00E94C70060E00130110509F061E019
:100450008AE00E94C70060E0219709F061E08BE02C
:100460000E94C70060E08A94892809F061E08CE06E
:100470000E94C70060E06A94672809F061E08DE09F
:100480000E94C7004114510409F4A9CF0E94000042
:06049000A6CFF894FFCF97
:00000001FF
